:100000000C94AF040C94CC040C94ED110C94CC041F
:100010000C94CC040C94CC040C94CC040C94CC0420
:100020000C94CC040C94CC040C94CC040C94CC0410
:100030000C94CC040C94510D0C94CC040C94CC0472
:100040000C94CC040C94CC040C94CC040C94CC04F0
:100050000C94CC040C94CC040C94CC040C94CC04E0
:100060000C94CC040C94CC040C94CC040C94CC04D0
:100070000000000000000000000000000000000080
:100080000000000000000000000000000000000070
:100090000000000000000000000000000000000060
:1000A0000000000000000000000000000000000050
:1000B000C0C0C0C0C0C0C0C0C0C0000000000000C0
:1000C0000000000000000000000000000000000030
:1000D000000000000000C0C0C0C0C0C0C0C0C0C0A0
:1000E000C000000000000000000000000000000050
:1000F000000000000000000000C0C0C0F8F8F8F8E0
:10010000F8FEFEFEFEFEFEFEFEFEFEFEFEFEFEFE15
:10011000FEF8F8F8F8F8C0C0C000000000000000C9
:100120000000000000F8F8F8FEFEFEFEFE3E3E3F36
:100130003F3FFFFFFFFFFFFF3F3F3F3E3EFEFEFE14
:10014000FEFEF8F8F800000000000000F8F8F8FEE5
:10015000FEFEFEFE3E3E3F3F3FFFFFFFFFFFFF3F35
:100160003F3F3E3EFEFEFEFEFEF8F8F800000000B7
:100170000000000038383E3E3EFFFFFFF9F9FFFF68
:10018000FF3F3F3F3939FFFFFFFFFFFF39393F3F57
:100190003FFFFFFFF9F9FFFFFF3E3E3E383800000A
:1001A0000000000000070707C7C7FFFFFF3E3E3EF5
:1001B0003E3ECFC7C7C7C7CF3E3E3E3E3EFFFFFFD6
:1001C000C7C7070707000000000000000707070770
:1001D00007C7C7C7FEFEFE3E3ECFC7C7C7C7CF3E55
:1001E0003EFEFEFEC7C7C70707070707000000005F
:1001F00000000000000000000001010107070101EC
:1002000001000000000000010101010000000000E9
:1002100000010101070701010100000000000000CA
:1002200000000000000000000101070707060606A5
:100230000000000101010100000006060607070793
:100240000101000000000000000000000606060694
:10025000060101010101000000000101010100008F
:10026000000001010101010606060606000000006B
:1002700000000000000000000000181818E0E00076
:1002800000000000000000C0E0E0181818000000A6
:100290000000000000000000C0E0E00000001818AE
:1002A000E0E0E00000000000000000E0E0E01818DE
:1002B000000000E0E0C000000000000000000000BE
:1002C00000E0E0E0F8F8F8F8F8E0E0C00000000036
:1002D000000000000000000000000000E0E0F8F86E
:1002E000F8F8F8F8E0E0000000000000000000006E
:1002F0000000000000E0E0F8F8F8FFFFFFE7E7FF8C
:10030000FFFFFFFFFFFFFFE7E7E7FFFFFFF8F8E072
:10031000E0E0000000000000FFFFFFF8F8FCFFFF36
:10032000E7E7E7FFFFFFFFFFFFFFFFE7E7E7FFFF6D
:10033000FCF8F8FFFFFF000000000000F8F8FFFFE6
:10034000FFE7E7E7FFFFFFFFFFE7E7E7FFFFFCF857
:10035000F80000000000F8F8F8FFFFFFE7E7FFFFF4
:10036000FFFFFFFFE7E7FFFFFFF8F8F800000000DE
:1003700000000000001F1F0000001F1F1FE7E7E72D
:10038000E7E7070707E7E7E7E7E71F1F1F00001F8B
:100390001F1F000000000000000000E7E7E71F1F2C
:1003A00007070707070707070707070707071F1FAD
:1003B000E7E7E70000000000000000001818E7E78A
:1003C000E70000000707070707000000E7E7181825
:1003D000180000000000C0E0E0181818E7E718183F
:1003E00018181818E7E7181818E0E0C00000000017
:1003F00000000000000000000000000000000000FD
:1004000000000000000000000000000000000000EC
:1004100000000000000000000000000000000000DC
:1004200000000000000000000000000000000000CC
:1004300000000000000000000000000000000000BC
:1004400000000000000000000000000000000000AC
:10045000000000000000000000000000000000009C
:10046000000000000000000000000000000000008C
:10047000000000000000000000065F5F06000000B2
:100480000007070007070000147F7F147F7F140018
:10049000242E6B6B3A120000466630180C66620020
:1004A000307A4F5D377A48000407030000000000EF
:1004B000001C3E63410000000041633E1C00000040
:1004C000082A3E1C1C3E2A0808083E3E0808000078
:1004D00000A0E0600000000008080808080800000C
:1004E00000006060000000006030180C060301008E
:1004F0003E7F594D7F3E000042427F7F40400000DA
:10050000627359496F660000226349497F360000D3
:10051000181C16137F7F1000276745457D390000A2
:100520003C7E4B4979300000036371190F070000CE
:10053000367F49497F360000064F49693F1E00005B
:1005400000006C6C0000000000A0EC6C00000000DB
:10055000081C366341000000141414141414000025
:10056000004163361C080000020351590F060000C9
:100570003E7F415D5D1F1E007C7E13137E7C00006C
:10058000417F7F49497F36001C3E63414163220021
:10059000417F7F41637F1C00417F7F495D41630054
:1005A000417F7F491D0103001C3E6341517372006E
:1005B0007F7F08087F7F000000417F7F41000000AF
:1005C000307040417F3F0100417F7F081C7763000E
:1005D000417F7F41406070007F7F060C067F7F0077
:1005E0007F7F060C187F7F001C3E6341633E1C002A
:1005F000417F7F49090F06001E3F21717F5E000089
:10060000417F7F19396F460026674D597B320000C4
:1006100003417F7F410300007F7F40407F7F0000D8
:100620001F3F60603F1F00007F7F3018307F7F00DA
:1006300063771C081C776300074F78784F0700002A
:100640006773594D47637100007F7F41410000008F
:100650000103060C183060000041417F7F0000005C
:10066000080C0603060C0800808080808080808053
:100670000000030704000000207454543C7840003C
:10068000413F7F44447C3800387C44446C2800005F
:10069000307848493F7F4000387C54545C18000053
:1006A000487E7F490302000098BCA4A4F87C0400A3
:1006B000417F7F08047C780000447D7D400000007D
:1006C00040C484FD7D000000417F7F10386C4400F1
:1006D00000417F7F400000007C7C0C180C7C78007F
:1006E0007C7C04047C780000387C44447C38000026
:1006F00084FCF8A4243C1800183C24A4F8FC8400D2
:10070000447C78441C180000485C54547424000055
:1007100000043E7F442400003C7C40403C7C400080
:100720001C3C60603C1C00003C7C6030607C3C00F9
:10073000446C3810386C44009CBCA0A0FC7C0000C9
:100740004C64745C4C64000008083E774141000032
:1007500000000077770000004141773E0808000064
:100760000203010302030100C807C307B907B20768
:10077000AA079E0798079207870783077E0748699D
:100780006768004C6F77004272696768746E6573C2
:1007900073005061696E7400536F6E67730053632A
:1007A0007265656E7361766572004F7074696F6E05
:1007B0007300457874726173004869676873636F8A
:1007C00072650047616D65002D2D2D4D61696E20AC
:1007D0004D656E752D2D2D0018180C0C0C180C186D
:1007E00018180C180C0C0C0C180C18180C181818DD
:1007F000180C180C1818180C0C18081818080818D9
:100800000C18180C4B021003100310031003E40221
:10081000E40293024B0293024B024B020B02DC03F5
:100820007003880100000B02DC03700388010000E4
:10083000100300001003100300001003E402000086
:10084000930293024B024B020B020B020B024B0270
:100850004B027003DC037003880110030C0C0C0CBA
:100860000C0C0C0C0C0C0C0C0C0C0C0C0C0C0C0CC8
:100870000C0C0C0C0C0C0C0C0C0C0C0C0909090CC1
:100880000C0C0C0C0C0C0C0C0C0C0C0C0C0C0C0CA8
:100890000C0C0C0C0C0C0C0C0C0C0C0909090C0CA1
:1008A0000C0C0C0C0C0C0C0C0C0C4D0A4D0A000022
:1008B0004D0A00002D084D0A0000400C0000000009
:1008C000000020060000000000002D0800000000CD
:1008D000200600000000270500000000E0060000E0
:1008E000B80700004907E006000020064D0A400C4A
:1008F000C00D0000EA0A400C00004D0A00002D085F
:100900002D09B807000000002D0800000000200697
:1009100000000000270500000000E0060000B80706
:1009200000004907E006000020064D0A400CC00DFB
:100930000000EA0A400C00004D0A00002D082D09B5
:10094000B807000000000C0C0C0C0C0C0C0C4D0A31
:100950004D0A00004D0A06010B02DC00B80111240B
:100960001FBECFEFD4E0DEBFCDBF13E0A0E0B1E00B
:10097000EAEFF5E302C005900D92A634B107D9F76E
:1009800023E0A6E4B3E001C01D92AD3EB207E1F75B
:100990000E94CE040C94FB1A0C9400000E949F0F3E
:1009A000F8948FE190E00E9404050E9411050E94D6
:1009B000C7050E94DE050E9497080E94490E0E940A
:1009C000E2100E9434140E94F4101F921F9282EED3
:1009D00091E09F938F9380E091E09F938F930E948B
:1009E000211878940F900F900F900F900F900F9008
:1009F0000E94EC0E0E948809FBCFB89AC09A089515
:100A0000C0980895C09A089590BD89B988E18AB9BF
:100A10008EE880BD08955D9BFECF8CB908958CB1A2
:100A2000089585B7806885BF80B7806280BF0895CC
:100A3000FB01F85E80830895FC01F85E80810895D3
:100A4000AF92BF92CF92DF92EF92FF920F931F93DC
:100A5000CF93DF9389EE91E09F938F938EE091E0A7
:100A60009F938F930E9421180E940A186C010E9484
:100A70000F180F900F900F900F90A12CB12CC0E089
:100A8000D0E00F2EFFEFEF2EF1E0FF2EF02D0EE065
:100A900011E00E940A18F501F85E80832081281772
:100AA000B1F099279F938F931F922F93BF92AF928C
:100AB000FF92EF921F930F930E94211821968DB7FA
:100AC0009EB70A960FB6F8949EBF0FBE8DBF9FEFDC
:100AD000A91AB90AA11488E0B806D9F6C6010E947D
:100AE0000F1800E010E0E12CF12C0F2EF0E3AF2EF8
:100AF000F2E0BF2EF02D0F2EFEE0CF2EF1E0DF2E24
:100B0000F02D0E940A18F801F85E20812817C1F024
:100B100099279F938F931F922F931F930F93BF92A9
:100B2000AF92DF92CF920E9421189FEFE91AF90A43
:100B30008DB79EB70A960FB6F8949EBF0FBE8DBFB5
:100B40000F5F1F4F011598E01907D9F6FF92EF923A
:100B5000DF93CF9384E692E09F938F938EE091E0B2
:100B60009F938F930E9421188DB79EB708960FB65A
:100B7000F8949EBF0FBE8DBFDF91CF911F910F9153
:100B8000FF90EF90DF90CF90BF90AF90089585B722
:100B9000806885BF80B7806280BF089500C000C0B4
:100BA0000000E82FF0E0FC5E80832899FECF82E60B
:100BB0008A95F1F70000809100140895EF92FF925A
:100BC0001F93CF93DF93B89AB99A80911C01882321
:100BD00071F110E0C12FD0E084E00E94CE059E01AB
:100BE00020593C4F7901F901808385E00E94CE05B0
:100BF000C459DC4F8883F7019081209148033091DC
:100C00004903290F311D3093490320934803209154
:100C1000460330914703A901480F511D50934703E4
:100C2000409346031F5F80911C01181798F2E8E675
:100C3000F3E080917303828380916F038383DF915C
:100C4000CF911F91FF90EF900895CF93DF93809104
:100C50004A0390E0EC01C059DC4F488120914803E1
:100C600030914903241B31093093490320934803F1
:100C7000FC01E459FC4F2081809146039091470389
:100C8000821B9109909347038093460384E00E945E
:100C9000CE058883C0914A03D0E085E00E94CE054E
:100CA000C459DC4F888390914A03292F30E0F90121
:100CB000E059FC4F80814091480350914903480F0F
:100CC000511D5093490340934803F901E459FC4FE7
:100CD0008081E0914603F0914703E80FF11DF09306
:100CE0004703E09346039F5F90934A0320911C01C2
:100CF000921710F010924A0330E0CA01B9010E9425
:100D00001C16EB01CF01B9010E941C16AB019E011C
:100D1000332780916A0390E0BC016F5F7F4F2617F5
:100D2000370731F001972817390711F0C09368038E
:100D30009A01332780916B0390E0BC016F5F7F4F76
:100D40002617370731F001972817390711F040931C
:100D50006903DF91CF9108950E9425066091680391
:100D60007091690380916A0390916B0308958F3BA2
:100D700091058CF16F3B71058CF0681779073CF495
:100D800081E090E090932801809327016CC082E07D
:100D900090E0909328018093270165C0603471052D
:100DA0009CF4660F771F681779073CF481E090E0A8
:100DB000909328018093270156C083E090E09093A0
:100DC0002801809327014FC081E090E09093280193
:100DD0008093270148C0803491055CF56F3B710515
:100DE0008CF0880F991F681779072CF4109228014E
:100DF0001092270138C082E090E090932801809300
:100E0000270131C0603471057CF4681779072CF430
:100E1000109228011092270126C083E090E0909361
:100E20002801809327011FC01092280110922701EA
:100E30001AC06F3B71053CF082E090E0909328016E
:100E40008093270110C0603471053CF483E090E08A
:100E5000909328018093270106C084E090E090934E
:100E600028018093270180912701909128010895FE
:100E7000CF9386E00E94CE05C82F87E00E94CE0562
:100E800090E020914B0330E0A901445051094817EC
:100E900059072CF42C5F3F4F821793072CF087E003
:100EA0000E94CE0580934B038C2F90E020914C0341
:100EB00030E0A90144505109481759072CF42C5F20
:100EC0003F4F821793072CF086E00E94CE05809357
:100ED0004C03CF9108950E94380780914B03909165
:100EE0004C0308950E9425060E943807EDE1F1E0C9
:100EF000A8E6B3E08C91828311968C918383ABE456
:100F0000B3E08C91848311968C91858386B3827033
:100F1000868386B381708783CF010E942311089551
:100F2000E0913501F091360180830895E09133011D
:100F3000F09134018083089590914E0320914F03E6
:100F4000E0913101F091320130E8239FE00DF11D75
:100F50001124E90FF11D80839F5F1AF090934E03D7
:100F6000089510924E0308951F93CF93DF9328E0C6
:100F70008202C0011124EC01C059DC4F10E0FE01D7
:100F800084910E949C071F5F21961830C1F7DF9162
:100F9000CF911F9108950F931F93CF93FC018081F0
:100FA000882359F08F01C0E00E94B407CF5FF80199
:100FB000EC0FF11D80818111F7CFCF911F910F911F
:100FC0000895FF920F931F93CF93DF93C82F882329
:100FD00009F44DC089E2C89FF12C11249DEC8F2D9E
:100FE00082958F700F2EF0E3FF2EF02DF80EC99F23
:100FF000212D1124269526952695299F912D112482
:10100000969596959695990F892F880F880F980F2A
:10101000022F091B005D220F822F880F880F280FD7
:101020001C2F121B105DDDECC43650F08F2D0E947A
:10103000B407CD9FC12D1124C695C695C69515C080
:10104000CA3050F0802F0E94B407CD9FC12D1124CB
:10105000C695C695C69509C0812F0E94B407CD9F3D
:10106000C12D1124C695C695C695C111DDCFDF915E
:10107000CF911F910F91FF90089580934F0310928D
:101080004E03883088F48055E0913501F0913601A7
:101090008083E0913501F09136011082E0913501B5
:1010A000F091360180E18083089580934E03882378
:1010B0007CF0982F9F7082958F70805FE091350152
:1010C000F09136019083E0913501F09136018083F3
:1010D0000895CF93C62F80934F0360934E030E94D1
:1010E0003D088C2F0E945508CF91089510924F0310
:1010F00010924E0360E080E00E9469080895CF934B
:101100000E943D08C0E080E00E949C07CF5FC0388D
:10111000D1F7CF910895CF93C0E08C2F0E947F0824
:10112000CF5FC830D1F70E947608CF910895E09143
:101130003501F09136018EEA8083E0913501F0911E
:10114000360181EA8083E0913501F09136018AED24
:101150008083E0913501F091360182E18083E09156
:101160003501F091360188EC8083E0913501F091F2
:10117000360188EA8083E0913501F09136018FE3F2
:101180008083E0913501F091360185ED8083E09117
:101190003501F091360180E88083E0913501F091CE
:1011A000360181E88083E0913501F091360180E5D8
:1011B0008083E0913501F091360189ED8083E091E3
:1011C0003501F091360181E28083E0913501F091A3
:1011D000360180E28083E0913501F091360182E0B2
:1011E0008083E0913501F09136018BED8083E091B1
:1011F0003501F091360180E38083E0913501F09173
:1012000036018DEA8083E0913501F091360110823C
:10121000E0913501F091360184EA8083E091350157
:10122000F091360186EA8083E0913501F091360134
:101230008FEA8083E0913501F091360180EB808365
:10124000E0913501F09136011082E0913501F09185
:10125000360180E180830E948B080E9476086CE34F
:1012600070E080E091E00E9442120895E091350123
:10127000F091360191E89083E0913501F0913601CB
:10128000808308950E94690888E10E949C0788E194
:101290000E949C078EE70E949C078CE30E949C079B
:1012A00088E10E949C0708950E94690880E00E94DE
:1012B0009C0780E00E949C0780E00E949C0780E0E1
:1012C0000E949C0780E00E949C070895FF920F9364
:1012D0001F93CF93DF930E948B08C0E7D0E0F12CDF
:1012E000F0924F038E0100581F4FFE0184910E941F
:1012F0009C072196C017D107C1F7F394E801F8E0E5
:10130000FF12EECFDF91CF911F910F91FF900895C3
:10131000FF920F931F93CF93DF9380914D03813002
:1013200021F5C0E0D0E010E0F12C00E0812F0E9418
:101330003D082F2D302FE0913101F0913201EC0F5B
:10134000FD1FE20FF31F9081E0913301F091340112
:1013500090832F5F3F4F2038310569F71F5FC058DA
:10136000DF4F183019F710924D03DF91CF911F9185
:101370000F91FF90089540E050E060E090E014C0CD
:10138000E0913101F0913201E40FF51FE20FF31FFC
:1013900080832F5F3F4F2038310591F740585F4FD2
:1013A000411524E0520719F0262F392FE9CF08956F
:1013B0000F931F93CF93C0E0082F880F110B8C2F32
:1013C0000E943D08C8010E94CB07CF5FC830B9F723
:1013D000CF911F910F9108956623ACF1403498F599
:1013E000942F96959695969547708823B1F0E09145
:1013F0003101F091320180E8989FE00DF11D112438
:10140000E60FF11D81E090E002C0880F991F4A9518
:10141000E2F79081892B80830895E0913101F0916A
:10142000320180E8989FE00DF11D1124E60FF11DB7
:1014300081E090E002C0880F991F4A95E2F78095FD
:1014400090818923808308957F928F929F92AF929B
:10145000BF92CF92DF92EF92FF920F931F93CF93A1
:10146000DF93982E862E062F069506950695862FD5
:1014700087700F2EFDEF7F2EF02D790C272D30E099
:10148000C92DD0E06E0193E0C90ED11CC216D3065F
:101490000CF448C090E8099F8001112441E050E01D
:1014A0007A0102C0EE0CFF1C8A95E2F7AA24A394ED
:1014B000B12CE0913101F0913201E00FF11FE20F08
:1014C000F31F808190E08E219F21892B81F42C1BBA
:1014D0003D0B2D5F3F4FC50102C0880F991F2A9514
:1014E000E2F790912A01892B80932A0110C02C1BCE
:1014F0003D0B2D5F3F4FC50102C0880F991F2A95F4
:10150000E2F7809590912A01892380932A01482D42
:10151000672D81E00E94EC097394272D30E0C216FC
:10152000D3063CF60F2EFDEFBF2EF02DB80C2B2D61
:1015300030E0082D10E0780183E0E80EF11CE2169F
:10154000F3060CF449C0CC24C394D12CE0913101B2
:10155000F09132018B2D86958695869590E8899F2E
:10156000E00DF11D1124EC0FFD1F808190E04B2D4B
:10157000477002C0959587954A95E2F780FD10C0A7
:10158000201B310B2D5F3F4FC60102C0880F991FF2
:101590002A95E2F790912901892B8093290110C0A7
:1015A000201B310B2D5F3F4FC60102C0880F991FD2
:1015B0002A95E2F78095909129018923809329014A
:1015C0004B2D692D81E00E94EC09B3942B2D30E066
:1015D000E216F3060CF0BACFDF91CF911F910F9175
:1015E000FF90EF90DF90CF90BF90AF909F908F9043
:1015F0007F900895CF92DF92FF920F931F93CF9326
:10160000DF93F82EC62FDDEFD80F2D2F30E0C82E38
:10161000D12C86010D5F1F4F02171307CCF080916C
:101620002A0190E02C193D092D5F3F4F02C095958E
:1016300087952A95E2F780FF05C04C2F6D2F80E03B
:101640000E94EC09DF5F2D2F30E0021713073CF7F3
:101650000F2EFDEFDF2EF02DDC0E2D2D30E0D0E033
:101660008E010D5F1F4F02171307CCF080912901E7
:1016700090E02C1B3D0B2D5F3F4F02C09595879549
:101680002A95E2F780FF05C04D2D6F2D80E00E9466
:10169000EC09D3942D2D30E0021713073CF7DF91AE
:1016A000CF911F910F91FF90DF90CF900895CF922F
:1016B000DF92EF92FF920F931F93CF93DF93082F48
:1016C000C62F142FC22E90E07C01E40EF11CE81608
:1016D000F9069CF0D02FD62ED20E4C2F6D2F81E024
:1016E0000E94EC094D2D6D2F81E00E94EC09DF5F17
:1016F000ED2FF0E0EE16FF0684F78C2F90E07C01D2
:10170000EC0CF11CE816F90694F0D02FD10F4C2FF9
:10171000602F81E00E94EC094C2F6D2F81E00E9428
:10172000EC09CF5F2C2F30E0E216F30684F7DF914F
:10173000CF911F910F91FF90EF90DF90CF90089580
:101740002F923F924F925F926F927F928F929F92D1
:10175000AF92BF92CF92DF92EF92FF920F931F93BF
:10176000CF93DF9300D000D0CDB7DEB730E0890152
:1017700001501109D901AA0FBB1FBA83A98321E027
:1017800030E06901CA1ADB0A11230CF462C0342E5E
:10179000462E8B83AA24A394B12C88248394912C65
:1017A000E12CF12C532C5E0C452DB42DB00FBC83D5
:1017B0006B2F8B810E94EC09632C600E462D742CDC
:1017C0007E0C672D8B810E94EC09462D642C6E18CF
:1017D000662D8B810E94EC09452D542C501A652DE5
:1017E0008B810E94EC09232C2E18422D652D8B81B4
:1017F0000E94EC09532C501A452D662D8B810E94B6
:10180000EC09452D672D8B810E94EC09422D6C81DE
:101810008B810E94EC091C141D045CF0EFEFEE1AA2
:10182000FE0ACA0CDB1CF2E0AF0EB11C1C141D0436
:1018300064F40150110922E0820E911CC401A981B7
:10184000BA818A1B9B0BC80ED91E0E151F050CF002
:10185000A9CF0F900F900F900F90DF91CF911F9114
:101860000F91FF90EF90DF90CF90BF90AF909F903F
:101870008F907F906F905F904F903F902F90089542
:10188000EF92FF920F931F93CF93DF9380912E01DE
:1018900080932C0180912D0180932B010E94AC0636
:1018A000E62E172FD82FC92F0E946B07082FF92E6D
:1018B0006E2D70E0ED2FF0E0CF01059668177907E7
:1018C0003CF080912E0188231CF08F5F80932E01C5
:1018D000B897E617F7073CF080912E01833018F097
:1018E000815080932E01E12FF0E06C2F70E0CB014E
:1018F0000A96E817F90744F080912D01882309F42E
:101900008AC0815080932D016E5171096E177F0737
:101910003CF080912D01803418F48F5F80932D016D
:1019200060912B0180912C010E94FA0A60912D0197
:1019300080912E010E94240AB09B74C080912E01D8
:10194000853108F590912D01953138F410923001D0
:1019500010922F018731C0F565C0993248F421E01B
:1019600030E03093300120932F018731D0F55AC0F9
:101970009D3348F422E030E03093300120932F0172
:10198000873180F44FC0873108F44CC020912F017B
:10199000309130012130310521F1B0F02230310594
:1019A00009F040C022E040912D01682F81E00E94A3
:1019B000A00B80912901837E90912A01937E9093C0
:1019C0002A01809329012EC02DECF29E212D112495
:1019D0002695269540912D01682F81E00E94A00B4D
:1019E00021C04DEC049F212D112426952695F49EAF
:1019F000412D11244695469560912D010E94570B6B
:101A000080912901877890912A01977890932A01F3
:101A10008093290107C06E5171096E177F070CF082
:101A20007CCF7ECFDF91CF911F910F91FF90EF90F0
:101A300008950E948B0824E144E161E081E00E9466
:101A4000570B27E04BE06BE081E00E94A00B24E104
:101A500044E165E181E00E94570B2CE04CE069E134
:101A600085E00E94570B24E144E169E281E00E9495
:101A7000570B22E043E36BE081E00E94A00B21E0E2
:101A800043E36BE081E00E94A00BB19905C00E9486
:101A9000400C0E948809F9CF0E94400C0E948809DE
:101AA00008951F920F920FB60F9211248F9381E029
:101AB00080934D038F910F900FBE0F901F9018953C
:101AC000E82FF0E0EE0FFF1FE859F84F6591749191
:101AD00082E893E00E941A180895CF92DF92EF9265
:101AE000FF921F93CF93DF93EC010E948B0810921B
:101AF00053031092520388810E94600D1F921F921F
:101B000082E893E09F938F9388E391E09F938F9374
:101B10000E9421180B80DC81C02D0F900F900F9038
:101B20000F900F900F90209799F111E00F2EF2E88F
:101B3000CF2EF3E0DF2EF02D0F2EF8E3EF2EF1E0A5
:101B4000FF2EF02D88810E94600D809152039091AC
:101B500053030196909353038093520364E1812FC2
:101B60000E9469081F921F92DF92CF92FF92EF921C
:101B70000E9421181F5F0D80DE81C02D0F900F90F5
:101B80000F900F900F900F90209711F01530D1F615
:101B90000E947608DF91CF911F91FF90EF90DF9028
:101BA000CF900895CF93DF93C7ECD3E018821A82C9
:101BB000198284E793E09C838B831E821D8287E0D9
:101BC000ECE9F1E0A4E7B3E001900D928A95E1F72A
:101BD00087E0E3EAF1E0ACEDB3E001900D928A9585
:101BE000E1F787E0EAEAF1E0A0ECB3E001900D92C2
:101BF0008A95E1F787E0E1EBF1E0ABEAB3E0019031
:101C00000D928A95E1F787E0E8EBF1E0A2EAB3E014
:101C100001900D928A95E1F787E0EFEBF1E0AEECF1
:101C2000B3E001900D928A95E1F787E0E6ECF1E0F0
:101C3000ABE7B3E001900D928A95E1F787E0EDEC18
:101C4000F1E0A5EDB3E001900D928A95E1F787E010
:101C5000E4EDF1E0A2EBB3E001900D928A95E1F79B
:101C600087E0EBEDF1E0A9EBB3E001900D928A95EE
:101C7000E1F7D093AA03C093A90380E00E94600D0E
:101C80008091A9039091AA030E946D0DDF91CF91DD
:101C900008950E948B080E94D20D08958091A90397
:101CA0009091AA0323E0823A920759F40E948B088C
:101CB00081E090E090935103809350030E94660965
:101CC000089523E08B37920759F40E948B0881E036
:101CD00090E090935103809350030E94190D089552
:101CE00023E084379207F9F40E948B080E9485153F
:101CF00084E00E94CE058D3338F481E090E090932B
:101D000051038093500308950E94FE12E091A903AD
:101D1000F091AA03818192819093AA038093A903F1
:101D20000E946D0D089523E08C3D920759F40E94A6
:101D30008B0881E090E090935103809350030E94C0
:101D4000D614089523E0893B9207B1F40E948B08D2
:101D5000109251031092500380E00E943609E091E6
:101D6000A903F091AA03818192819093AA038093A1
:101D7000A9030E946D0D089523E0823B9207B1F400
:101D80000E948B0810925103109250038FEF0E9413
:101D90003609E091A903F091AA0381819281909381
:101DA000AA038093A9030E946D0D08958E5C934051
:101DB00091F40E94DE101092510310925003E091B2
:101DC000A903F091AA03818192819093AA03809341
:101DD000A9030E946D0D089565E0809137010E946E
:101DE00069088091500390915103892B29F465E093
:101DF000809137010E94420985E00E94CE05803F14
:101E000090F065E0809137010E945409809137017C
:101E1000815080933701811188C080915203815095
:101E20008093370182C085E00E94CE058B30B8F4E4
:101E300065E0809137010E945409809137018F5FDE
:101E40008093370190E0209152033091530328177B
:101E500039070CF06AC081E08093370166C084E0E6
:101E60000E94CE05803FE8F1E091A903F091AA031A
:101E700083819481892B09F461C00E947608E091E6
:101E8000A903F091AA03938184819093A90380937D
:101E9000AA034091370150E041505109141615062C
:101EA00084F4E92FF82F80E090E0358126810196B7
:101EB000E32FF22F84179507C4F33093A9032093DF
:101EC000AA038091A9039091AA030E946D0D8091AD
:101ED00037018093540381E0809337010E944E0EB6
:101EE00024C084E00E94CE058B30F8F48091540326
:101EF000882339F00E948B081092540381E080936C
:101F00003701E091A903F091AA0381819281892B85
:101F1000A9F0109251031092500381819281909305
:101F2000AA038093A9030E946D0D2FEF8FE791E024
:101F3000215080409040E1F700C000C00895329ADF
:101F40003A9808953A9A08953A980895009741F07A
:101F5000ECECF4E03197F1F700C000000197C1F715
:101F60000895009729F000C000C000000197D9F73C
:101F700008951F93CF93DF93EC01162F9C0140E04F
:101F800050E060E271EA87E090E00E9444163093EE
:101F9000600320935F031C9F90011D9F300D11244F
:101FA000369527953695279536952795A5ECB0E279
:101FB0000E946316929582958F7089279F7089275A
:101FC00090935E0380935D03892BD1F0C0E0D0E055
:101FD0000E94A20F80915F03909160030E94B10F55
:101FE0000E94A40F80915F03909160030E94B10F43
:101FF000219680915D0390915E03C817D90740F345
:10200000DF91CF911F910895FF920F931F93CF936C
:10201000DF9394E090935C03C82FD0E0FE01EE0FB5
:10202000FF1FEE0FFF1FEA5BF64F649160935B03A7
:1020300061110EC049C02F2D30E0FE01E20FF31FE9
:10204000EA5BF64F649160935B0361110AC03CC088
:1020500020E030E0F12C08EE13E0CC0FDD1FCC0FB8
:10206000DD1F70E0C8010E94301660935B03FE0123
:10207000E20FF31FEE0FFF1FE25BF64F8591949185
:102080000E94B90F60915B0370E080E090E00E94D5
:10209000C51626E636E646EA5FE30E9429170E9447
:1020A000941670935A0360935903CB010E94A60FB4
:1020B00060915B0380E090E00E94B90FF3948091FF
:1020C0005C03F81608F4B7CFDF91CF911F910F9101
:1020D000FF9008950F931F93CF93DF93082F8111E3
:1020E00004C08EE48093580354C08CE2809358035C
:1020F00050C0011116C0212F30E0F901E45AF74F0A
:10210000649170E0CE010E94301660935703F9018C
:10211000EE0FFF1FE655F74F859194910E94B90F7E
:1021200015C0212F30E0F901E852F84F649170E0BA
:10213000CE010E94301660935703F901EE0FFF1F86
:10214000EC5FF74F859194910E94B90F609157030E
:1021500070E080E090E00E94C51626E636E646EA8A
:102160005FE30E9429170E949416709356036093B0
:102170005503CB010E94A60F6091570380E090E0C9
:102180000E94B90F1F5F80915803181708F4B1CF50
:1021900004C010E0C8EED3E0ACCFDF91CF911F9127
:1021A0000F91089580E00E940410089581E00E943C
:1021B0000410089580E00E946A10089581E00E9452
:1021C0006A10089580EB87BB81E58DB908958FB9BA
:1021D000779BFECF08951FB8779BFECF8FB10895F0
:1021E000C4980895C49A089540E060EE8FE00E947C
:1021F000E4124FEF61E08BE20E94E4124FEF65E0E2
:102200008CE00E94E4124FEF60E680E60E94E41248
:102210008B9885B7886085BF85B78B7F85BF8BB767
:1022200080688BBF089580E30E94931284FD08C0EC
:1022300080E30E94931285FB882780F990E008953F
:1022400081E090E008950F931F93CF938C010E943B
:102250001311892BA9F080E30E9493121F928F9390
:102260008CEA92E09F938F9386E491E09F938F9303
:102270000E9421180F900F900F900F900F900F90C9
:10228000F80140814695469546956FEF81E30E949F
:10229000E412F80140814295440F407E60EE82E3F3
:1022A0000E94E412F80141816FE085E30E94E4128C
:1022B000F8018181882379F0C0E0F801EC0FF11D6D
:1022C00042816FEF86E38C0F0E94E412CF5FF8012A
:1022D0008181C81790F381E80E94D912CF911F9194
:1022E0000F910895AF92BF92CF92DF92EF92FF923B
:1022F0000F931F93CF93DF93CDB7DEB72A970FB617
:10230000F894DEBF0FBECDBF5C010E941311892B74
:10231000A9F080E60E9493121F928F9388EB92E0BF
:102320009F938F9386E491E09F938F930E9421184F
:102330000F900F900F900F900F900F9081E60E94DA
:102340009312182F82E60E949312829586958770C9
:10235000110F110F110FD82ED10E85E60E94931286
:102360008F70C82E81F07E0183E0E80EF11C06E636
:102370000C0D16E6812F0E949312F70181937F01C5
:102380001F5F1013F7CF40E061E08CE20E94E4127F
:10239000D982CA828AE0FE013196D50101900D9260
:1023A0008A95E1F7C5012A960FB6F894DEBF0FBEF5
:1023B000CDBFDF91CF911F910F91FF90EF90DF90F4
:1023C000CF90BF90AF90089580916103813019F450
:1023D00010926103089580E008951F920F920FB646
:1023E0000F9211242F933F934F935F936F937F939B
:1023F0008F939F93AF93BF93EF93FF9381E080936D
:1024000061031F921F9284EC92E09F938F9386E466
:1024100091E09F938F930E9421180F900F900F903F
:102420000F900F900F90FF91EF91BF91AF919F91FF
:102430008F917F916F915F914F913F912F910F906D
:102440000FBE0F901F9018958034910589F030F4DD
:1024500081309105A9F0089749F010C0811521E05D
:10246000920741F08115944039F008C082E0089548
:1024700083E0089584E0089585E0089580E008955C
:1024800081E008950F931F93CF93DF938C01EB01AD
:102490008FB582608FBD8EB588618EBDC8010E94E8
:1024A00024129EB5892B8EBD8FB580688FBD9E018D
:1024B00040E050E060E070E08BE490E00E94441661
:1024C000CA01B901980140E050E00E944416C901D8
:1024D000019795BD84BD225031093BBD2ABD89B706
:1024E000806489BFDF91CF911F910F9108950E9461
:1024F000F01080EC0E94E7100E94F2108FEF9FE234
:102500000197F1F700C000000895CF930E94F010EA
:1025100080EA0E94E7100E94EB10C82F0E94F21080
:102520008C2FCF910895CF93C82F0E94F01083E095
:102530000E94E7108C2F0E94E7100E94EB10C82F1A
:102540000E94F2108C2FCF9108950E94E2100E94F9
:1025500077128EE00E949312807E8038A1F01F9245
:102560001F928FEC92E09F938F9384E591E09F936D
:102570008F930E9421180F900F900F900F900F9043
:102580000F9081E0089580E00895CF93DF93C82FE6
:10259000D62F0E94F01082E00E94E7108D2F0E943B
:1025A000E7108C2F0E94E7100E94F210DF91CF916C
:1025B0000895CF93C82F0E94F0108C2F0E94E7102F
:1025C0000E94F210CF9108951F93CF93DF93182F9D
:1025D000D62FC42F0E94F01085E00E94E710812FB3
:1025E0000E94E7108D2F0E94E7108C2F0E94E710A9
:1025F0000E94F210DF91CF911F9108956F927F9208
:102600008F929F92AF92BF92CF92DF92EF92FF9202
:102610000F931F93CF93DF93CDB7DEB72A970FB6F3
:10262000F894DEBF0FBECDBF0E948B080E948809C0
:1026300069E170E081E090E00E94690883EF92E038
:102640000E94CB0762E370E081E090E00E9469089D
:102650000E943D150E94CB0764E170E085E090E0A8
:102660000E94690886EF92E00E94CB078AE791E01A
:102670000E9423110E94D210AA24A394B12C0F2EE1
:10268000FAE06F2EF02D03EE13E00F2EF0E08F2E08
:10269000F3E09F2EF02D0F2EF4E8EF2EF1E0FF2E49
:1026A000F02D0F2EFCE1CF2EF3E0DF2EF02D02C037
:1026B000A82EB92E0E9472070E948809B19905C000
:1026C0000E94E411882309F4B4C02FEF8FE791E052
:1026D000215080409040E1F700C000C080E791E0C9
:1026E0000E942311CE0101960E947211FE013196C3
:1026F000D801862D01900D928A95E1F7F80182812B
:102700001F928F939F928F92FF92EF920E942118B7
:10271000F80172800E943D15672D0E9465140E9489
:102720008B080E94D6100F900F900F900F900F9073
:102730000F900E94880969E170E080E090E00E94BB
:1027400069088CE093E00E94CB0769E170E082E0C9
:1027500090E00E94690886E193E00E94CB076BE459
:1027600070E082E090E00E946908F801828190E0C8
:102770000E94E107F80182811F928F93DF92CF922E
:10278000FF92EF920E94211864E170E085E090E0F2
:102790000E94690888E293E00E94CB0764E170E040
:1027A00086E090E00E94690886EF92E00E94CB07E5
:1027B000FFEF2FEF85E0F15020408040E1F700C0AF
:1027C00000C00F900F900F900F900F900F90B09B44
:1027D0002DC00E948B080E94880969E170E081E0A9
:1027E00090E00E94690883EF92E00E94CB0762E3C9
:1027F00070E081E090E00E9469080E943D150E940F
:10280000CB0764E170E085E090E00E94690886EF04
:1028100092E00E94CB078AE791E00E9423110E9478
:10282000D210B1990BC08A2D9B2D05C0B19906C05D
:1028300080CF8A2D9B2DAB2809F03ACF81E02A96D4
:102840000FB6F894DEBF0FBECDBFDF91CF911F91C1
:102850000F91FF90EF90DF90CF90BF90AF909F903F
:102860008F907F906F90089580E090E0E0919601C6
:10287000F0919701E80FF91F1082019685309105BC
:10288000A9F780E090E0E0919401F0919501E80FC4
:10289000F91F1082019682339105A9F70895E091FE
:1028A0009601F09197019081981730F0319691E060
:1028B0002081281720F401C090E0892F08959F5FA0
:1028C00031969530A9F78FEF0895DF92EF92FF923E
:1028D0000F931F93CF93DF93F82E092F162F862F78
:1028E0000E944F148F3F09F454C0853098F5A4E13D
:1028F000B0E0C5E0D0E0D12CE12CE0919601F09160
:102900009701AF014C0F5D1F9E0121503109E20F6D
:10291000F31F9081FA019083BD01645071094D2D20
:102920005E2D2091940130919501F901E60FF71F7A
:10293000E40FF51F90812A0F3B1FF901E40FF51FEB
:1029400090834F5F5F4F4430510559F7219714979B
:102950008C1798F290E0E0919601F0919701E80FC2
:10296000F91F1083880F991F880F991FAF2DB02F63
:1029700020E030E04D91E0919401F0919501E80F55
:10298000F91FE20FF31F40832F5F3F4F24303105C3
:1029900089F7809163038F5F80936303DF91CF9109
:1029A0001F910F91FF90EF90DF900895AF92BF922B
:1029B000CF92DF92EF92FF920F931F93CF93DF930B
:1029C0000E948B080E94760869E180E00E946908F5
:1029D00084E393E00E94CB0780916303882309F48A
:1029E00041C0C0E0B12CC12C6894AA24A1F8AC0E5F
:1029F0006EE18A2D0E946908DD24D394DC0E8D2DB2
:102A00000E94E10768E28A2D0E946908D0E08E01E9
:102A1000000F111F000F111FEB2CFC2CE0919401F3
:102A2000F0919501E00FF11FEE0DFF1D80810E94D6
:102A3000B4078FEFE81AF80A84E0E816F10471F79A
:102A400060E58A2D0E946908809196019091970116
:102A5000C80FD91F88810E94E107CD2D80916303A3
:102A6000D81610F2DF91CF911F910F91FF90EF9048
:102A7000DF90CF90BF90AF90089580919201909198
:102A80009301089585E00E94CE05803FA0F08091DB
:102A90006603909167031816190644F089E190E0E7
:102AA00090936703809366038AE508950197909356
:102AB00067038093660385E00E94CE058B3090F417
:102AC00080916603909167038931910534F01092EB
:102AD00067031092660381E408950196909367035B
:102AE00080936603809166038F5B089580E090E099
:102AF00020E2E0919201F0919301E80FF91F208309
:102B0000019684309105A9F708951F93CF93DF9321
:102B10000E948B080E9488090E9476151092670314
:102B200010926603109265031092640360E083E0E4
:102B30000E9469088FE393E00E94CB072FEF8FE795
:102B400097E0215080409040E1F700C0000010E283
:102B500064C00E94880968E283E00E94690880914D
:102B60009201909193010E94CB076EE185E00E9453
:102B700069080E9442150E94B4072FEF8FEF92E080
:102B8000215080409040E1F700C000C0B09B19C0C8
:102B900080916403909165038430910594F4C09111
:102BA0009201D0919301C80FD91F0E9442158883CA
:102BB00080916403909165030196909365038093DF
:102BC0006403B19B2AC080916403909165039923AB
:102BD00024F12091920130919301F901E80FF91F3E
:102BE000108380916403909165030197909365032E
:102BF000809364032091920130919301F901E80FD1
:102C0000F91F1083809164039091650318161906CB
:102C100024F0109265031092640384E00E94CE05B4
:102C2000803F30F484E00E94CE058B3008F091CFD5
:102C3000DF91CF911F910895AA1BBB1B51E107C0E3
:102C4000AA1FBB1FA617B70710F0A61BB70B881F3C
:102C5000991F5A95A9F780959095BC01CD010895CB
:102C600097FB072E16F4009407D077FD09D00E9439
:102C70001C1607FC05D03EF4909581959F4F089552
:102C8000709561957F4F0895052E97FB1EF4009473
:102C90000E945B1657FD07D00E94721607FC03D0F6
:102CA0004EF40C945B1650954095309521953F4F0E
:102CB0004F4F5F4F089590958095709561957F4F28
:102CC0008F4F9F4F0895A29FB001B39FC001A39F54
:102CD000700D811D1124911DB29F700D811D112455
:102CE000911D0895A1E21A2EAA1BBB1BFD010DC068
:102CF000AA1FBB1FEE1FFF1FA217B307E407F507AC
:102D000020F0A21BB30BE40BF50B661F771F881F87
:102D1000991F1A9469F760957095809590959B011D
:102D2000AC01BD01CF0108950E94081788F09F579C
:102D300098F0B92F9927B751B0F0E1F0660F771FDF
:102D4000881F991F1AF0BA95C9F714C0B13091F0D5
:102D50000E942217B1E008950C942217672F782F54
:102D60008827B85F39F0B93FCCF38695779567959A
:102D7000B395D9F73EF490958095709561957F4F06
:102D80008F4F9F4F0895E89409C097FB3EF49095AC
:102D90008095709561957F4F8F4F9F4F9923A9F034
:102DA000F92F96E9BB279395F695879577956795C3
:102DB000B795F111F8CFFAF4BB0F11F460FF1BC007
:102DC0006F5F7F4F8F4F9F4F16C0882311F096E99A
:102DD00011C0772321F09EE8872F762F05C0662348
:102DE00071F096E8862F70E060E02AF09A95660F01
:102DF000771F881FDAF7880F9695879597F90895BA
:102E000057FD9058440F551F59F05F3F71F047959B
:102E1000880F97FB991F61F09F3F79F08795089580
:102E2000121613061406551FF2CF4695F1DF08C09F
:102E3000161617061806991FF1CF869571056105BC
:102E400008940895E894BB2766277727CB0197F964
:102E500008950E943C170C94AD170E949F1738F0FC
:102E60000E94A61720F0952311F00C9496170C944D
:102E70009C1711240C9423170E94001770F3959F40
:102E8000C1F3950F50E0551F629FF001729FBB2761
:102E9000F00DB11D639FAA27F00DB11DAA1F649FFD
:102EA0006627B00DA11D661F829F2227B00DA11DB0
:102EB000621F739FB00DA11D621F839FA00D611D36
:102EC000221F749F3327A00D611D231F849F600D57
:102ED000211D822F762F6A2F11249F5750409AF080
:102EE000F1F088234AF0EE0FFF1FBB1F661F771F0C
:102EF000881F91505040A9F79E3F510580F00C94D7
:102F000096170C9423175F3FE4F3983ED4F386950D
:102F100077956795B795F795E7959F5FC1F7FE2B76
:102F2000880F911D9695879597F9089597F99F6752
:102F300080E870E060E008959FEF80EC0895002441
:102F40000A941616170618060906089500240A940E
:102F500012161306140605060895092E0394000C94
:102F600011F4882352F0BB0F40F4BF2B11F460FF23
:102F700004C06F5F7F4F8F4F9F4F08958F929F9236
:102F8000AF92BF92CF92DF92EF92FF92CF93DF93F7
:102F9000EC01688179818A819B81611571058105C8
:102FA000910521F464E279ED8BE597E02DE133EFB3
:102FB00041E050E00E94441649015A019B01AC01D6
:102FC000A7EAB1E40E94B11A6B017C01ACEEB4EF48
:102FD000A50194010E94BF1ADC01CB018C0D9D1D3F
:102FE000AE1DBF1DB7FF03C00197A109B04888837C
:102FF0009983AA83BB839F77DF91CF91FF90EF9056
:10300000DF90CF90BF90AF909F908F9008950E94D7
:10301000BE17089588E991E00E94BE170895A0E0C8
:10302000B0E08093980190939901A0939A01B09396
:103030009B010895FB01DC0105900D920020E1F752
:103040000895A0E0B0E0E7E2F8E10C94D41AAE01F4
:10305000475F5F4F6F8178858D819E810E94331815
:10306000E2E00C94F01AACE0B0E0E9E3F8E10C9493
:10307000C41A7C016B018A01FC01178216828381CC
:1030800081FFBDC1CE0101964C01F7019381F6018C
:1030900093FD859193FF81916F01882309F4ABC162
:1030A000853239F493FD859193FF81916F018532CB
:1030B00029F4B70190E00E941B1AE7CF512C312C64
:1030C00020E02032A0F48B3269F030F4803259F0E5
:1030D000833269F420612CC08D3239F0803339F4A9
:1030E000216026C02260246023C0286021C027FD03
:1030F00027C030ED380F3A3078F426FF06C0FAE0EA
:103100005F9E300D1124532E13C08AE0389E300D7F
:103110001124332E20620CC08E3221F426FD6BC1A7
:10312000206406C08C3611F4206802C0883641F451
:10313000F60193FD859193FF81916F018111C1CFBC
:10314000982F9F7D9554933028F40C5F1F4FFFE319
:10315000F9830DC0833631F0833771F0833509F080
:103160005BC022C0F801808189830E5F1F4F442419
:103170004394512C540115C03801F2E06F0E711CBC
:10318000F801A080B18026FF03C0652D70E002C069
:103190006FEF7FEFC5012C870E94101A2C0183016D
:1031A0002C852F77222E17C03801F2E06F0E711C8C
:1031B000F801A080B18026FF03C0652D70E002C039
:1031C0006FEF7FEFC5012C870E94051A2C012C851B
:1031D0002068222E830123FC1BC0832D90E048161B
:1031E0005906B0F4B70180E290E00E941B1A3A94AD
:1031F000F4CFF50127FC859127FE81915F01B7018E
:1032000090E00E941B1A31103A94F1E04F1A5108D5
:103210004114510471F7E5C0843611F0893639F54F
:10322000F80127FF07C060817181828193810C5F63
:103230001F4F08C060817181072E000C880B990B0D
:103240000E5F1F4F2F76722E97FF09C090958095C5
:10325000709561957F4F8F4F9F4F2068722E2AE0A7
:1032600030E0A4010E94531AA82EA81844C0853744
:1032700029F42F7EB22E2AE030E025C0F22FF97F0C
:10328000BF2E8F36C1F018F4883579F0B4C080377E
:1032900019F0883721F0AFC02F2F2061B22EB4FE75
:1032A0000DC08B2D8460B82E09C024FF0AC09F2F4B
:1032B0009660B92E06C028E030E005C020E130E07D
:1032C00002C020E132E0F801B7FE07C060817181E1
:1032D000828193810C5F1F4F06C06081718180E005
:1032E00090E00E5F1F4FA4010E94531AA82EA81849
:1032F000FB2DFF777F2E76FE0BC0372D3E7FA5146A
:1033000050F474FE0AC072FC08C0372D3E7E05C022
:10331000BA2C372D03C0BA2C01C0B52C34FF0DC018
:10332000FE01EA0DF11D8081803311F4397E09C060
:1033300032FF06C0B394B39404C0832F867809F09B
:10334000B39433FD13C030FF06C05A2CB31418F4E5
:10335000530C5B18B32CB31468F4B70180E290E00F
:103360003C870E941B1AB3943C85F5CFB31410F42C
:103370003B1801C0312C34FF12C0B70180E390E04C
:103380003C870E941B1A3C8532FF17C031FD03C0E9
:1033900088E790E002C088E590E0B7010CC0832F79
:1033A000867859F031FF02C08BE201C080E237FD20
:1033B0008DE2B70190E00E941B1AA51438F4B70102
:1033C00080E390E00E941B1A5A94F7CFAA94F4016C
:1033D000EA0DF11D8081B70190E00E941B1AA11037
:1033E000F5CF332009F451CEB70180E290E00E947E
:1033F0001B1A3A94F6CFF7018681978102C08FEFAE
:103400009FEF2C96E2E10C94E01AFC0105906150CC
:1034100070400110D8F7809590958E0F9F1F0895EA
:10342000FC016150704001900110D8F78095909593
:103430008E0F9F1F08950F931F93CF93DF93FB0170
:10344000238121FD03C08FEF9FEF28C022FF16C00C
:1034500046815781248135814217530744F4A08166
:10346000B1819D012F5F3F4F318320838C93268153
:1034700037812F5F3F4F3783268310C0EB01092F21
:10348000182F0084F185E02D0995892BE1F68E81B6
:103490009F8101969F838E83812F902FDF91CF9103
:1034A0001F910F910895FA01AA27283051F1203178
:1034B00081F1E8946F936E7F6E5F7F4F8F4F9F4FC8
:1034C000AF4FB1E03ED0B4E03CD0670F781F891F0A
:1034D0009A1FA11D680F791F8A1F911DA11D6A0FD8
:1034E000711D811D911DA11D20D009F468943F918B
:1034F0002AE0269F11243019305D3193DEF6CF018A
:103500000895462F4770405D4193B3E00FD0C9F74F
:10351000F6CF462F4F70405D4A3318F0495D31FDBC
:103520004052419302D0A9F7EACFB4E0A69597950F
:10353000879577956795BA95C9F7009761057105E5
:1035400008959B01AC010A2E06945795479537952F
:103550002795BA95C9F7620F731F841F951FA01D89
:1035600008950E946316A59F900DB49F900DA49F8F
:10357000800D911D11240895B7FF0C94B11A0E947B
:10358000B11A821B930B08952F923F924F925F9234
:103590006F927F928F929F92AF92BF92CF92DF9263
:1035A000EF92FF920F931F93CF93DF93CDB7DEB7C8
:1035B000CA1BDB0B0FB6F894DEBF0FBECDBF09945C
:1035C0002A88398848885F846E847D848C849B84B3
:1035D000AA84B984C884DF80EE80FD800C811B81C1
:1035E000AA81B981CE0FD11D0FB6F894DEBF0FBEF0
:0A35F000CDBFED010895F894FFCF60
:1035FA0000000002000000000B05000000000000AF
:10360A000002000000000B0500000000040406018F
:10361A00020304050600000400FFFF2040204002C8
:10362A000000180012001001000000020000000053
:10363A00B4070000000000000002000000000B05B3
:10364A000000000000000002000000000B0500005E
:10365A000000010001000500000000000000000059
:10366A000200000000000000000003010600000044
:10367A000000000000000002000000000B0500002E
:10368A000000301C091C001C0100000001C70300D7
:10369A0000DC0302C7030000C00303C703A203AB95
:1036AA000304C703D503000005C0030000CE0306C8
:1036BA00C00300007B0307C0030000000008AB033F
:1036CA00B20300000AD5030000B90309D5030000BC
:1036DA000000696E69740A0D005374617274205394
:1036EA0052414D20746573743A2564200A0D0057BF
:1036FA0072697465206572726F723A206578745FB8
:10370A0072616D5B25645D3D2530325820287368EF
:10371A006F756C642062652025303258290A0D00C5
:10372A0052657472696576206572726F723A2065A5
:10373A0078745F72616D5B2534645D3D2530325863
:10374A00202873686F756C642062652025303258B2
:10375A00290A0D005352414D207465737420646F19
:10376A006E6520776974680A0D2534642065727263
:10377A006F7273202857522070686173652920265A
:10378A000A0D253464206572726F727320285245BF
:10379A005452207068617365290A0D0057525F45BB
:1037AA0052202534780D0A0052445F4552202534B0
:1037BA00780D0A00494E54315F43414E0D0A004DBF
:1037CA00435032353135204E4F5420636F6E66694F
:1037DA0067206D6F64652061667465722072737408
:1037EA000D0A00474F004C4546543D515549540077
:1037FA0073636F72653A2025640D0A0047414D458F
:10380A00204F5645520053434F52450053434F529F
:10381A00453A202025640A0052494748543D5245FA
:10382A00545259004869676873636F726573004E32
:06383A00616D653A2000FB
:00000001FF
