:100000000C94D5000C94F6000C94F6000C94F600B9
:100010000C94F6000C94F6000C94F6000C94F60088
:100020000C94F6000C94F6000C94F6000C94F60078
:100030000C94F6000C94F6000C94F6000C94F60068
:100040000C94F6000C94F6000C94F6000C94F60058
:100050000C94F6000C94F6000C94F6000C94F60048
:100060000C94F6000C94F6000C94F6000C94F60038
:100070000C94F6000C94F6000C94F6000C94F60028
:100080000C944E090C94F6000C94F6000C94F600B7
:100090000C94F6000C94F6000C94F6000C94770681
:1000A0000C94F6000C94F6000C94F6000C94F600F8
:1000B0000C94F6000C94F6000C94F6000C941D0AB7
:1000C0000C94F6000C94F6000C94F6000C94F600D8
:1000D0000C94F6000C94F6000C94F6000C94F600C8
:1000E0000C94F6009606E806E806E806E806E80638
:1000F000E806E8069606E806E806E806E806E806E2
:10010000E806E8069806E806E806E806E806E806CF
:10011000E806E806E806E806E806E806E806E8066F
:10012000E806E8069806E806E806E806E806E806AF
:10013000E806E806E806E806E806E806E806E8064F
:10014000E806E806E406E806E806E806E806E80643
:10015000E806E806C106E806E806E806E806E80656
:10016000E806E806E806E806E806E806E806E8061F
:10017000E806E806B506E806E806E806E806E80642
:10018000E806E806D3060C94D3060C9472010C948E
:100190006A010C94C1060C94B5060C9496060C9456
:1001A00098060C94E8060C94E40611241FBECFEFC9
:1001B000D1E2DEBFCDBF00E00CBF13E0A0E0B2E0B3
:1001C000E8E8F3E200E00BBF02C007900D92AE300A
:1001D000B107D9F723E0AEE0B3E001C01D92AE371E
:1001E000B207E1F70E94F8000C94C2110C940000D1
:1001F000CF93DF93CDB7DEB72A970FB6F894DEBF63
:100200000FBECDBFF89487E690E00E947A011F925E
:100210001F928DE592E09F938F9380E092E09F93F1
:100220008F930E94BB0D0E944B030E9461030E94AA
:100230000C060E9402060E948B010E948A070E94FF
:100240005D090E94750978940F900F900F900F90A0
:100250000F900F900F2EF7E6AF2EF2E0BF2EF02D8D
:1002600000E012E00F2EF1E7CF2EF2E0DF2EF02DAE
:10027000CE0101960E94D003F9800E949B019F93BA
:100280008F93BF92AF921F930F930E94BB0D1F924B
:10029000FF92DF92CF921F930F930E94BB0D2FEF1F
:1002A00083EC99E0215080409040E1F700C00000CD
:1002B0000FB6F894DEBF0FBECDBF93E0F912D8CFD2
:1002C0000E94570AD5CF089A109A08951098089559
:1002D000109A0895E0ECF0E0908195FFFDCF8093B7
:1002E000C6000895E0ECF0E080818823ECF780916F
:1002F000C60008959093C5008093C40088E1809360
:10030000C1008EE08093C20062E771E08AE691E06E
:100310000E94700D0895809A8898EAE7F0E0808145
:1003200080688083ACE7B0E08C91806C8C93808196
:10033000876080830895EAE7F0E0808180648083AD
:10034000808184FFFDCF209178008091790090E03A
:10035000982F8827820F911D0895EF92FF921F9387
:10036000CF93DF93209A219A80910E02882381F106
:1003700010E0C12FD0E084E090E00E949B019E013C
:100380002B5B3C4F7901F901808385E090E00E946E
:100390009B01CF5BDC4F8883F70190812091100394
:1003A00030911103290F311D309311032093100355
:1003B00020910E0330910F03A901480F511D509356
:1003C0000F0340930E031F5F80910E02181788F2EF
:1003D000EDE3F3E0809145038283809141038383C1
:1003E000DF91CF911F91FF90EF900895CF93DF930E
:1003F0008091120390E0EC01CB5BDC4F48812091AF
:10040000100330911103241B310930931103209301
:100410001003FC01EF5BFC4F208180910E03909153
:100420000F03821B910990930F0380930E0384E0C6
:1004300090E00E949B018883C0911203D0E085E088
:1004400090E00E949B01CF5BDC4F88839091120368
:10045000292F30E0F901EB5BFC4F808140911003C4
:1004600050911103480F511D5093110340931003F5
:10047000F901EF5BFC4F8081E0910E03F0910F03D7
:10048000E80FF11DF0930F03E0930E039F5F90932D
:10049000120320910E02921710F01092120330E016
:1004A000CA01B9010E94460BEB01CF01B9010E94BC
:1004B000460BAB019E01332780913F0390E0BC01C6
:1004C0006F5F7F4F2617370731F0019728173907DD
:1004D00011F0C0933D039A0133278091400390E0CF
:1004E000BC016F5F7F4F2617370731F00197281740
:1004F000390711F040933E03DF91CF9108950E9498
:10050000F60160913D0370913E0380913F0390910D
:1005100040030895CF93DF9386E090E00E949B0113
:10052000EC0187E090E00E949B0199272091130342
:1005300030E0A90144505109481759072CF42C5FA9
:100540003F4F8217930734F087E090E00E949B01B1
:1005500080931303CE0199272091140330E0A90161
:1005600044505109481759072CF42C5F3F4F82170C
:10057000930734F086E090E00E949B01809314037F
:10058000DF91CF9108950E948A0280911303909188
:10059000140308958F3B91058CF16F3B71058CF02E
:1005A000681779073CF481E090E090931002809303
:1005B0000F026CC082E090E09093100280930F02D3
:1005C00065C0603471059CF4660F771F6817790762
:1005D0003CF481E090E09093100280930F0256C0AB
:1005E00083E090E09093100280930F024FC081E06F
:1005F00090E09093100280930F0248C080349105E0
:100600005CF56F3B71058CF0880F991F68177907AF
:100610002CF41092100210920F0238C082E090E089
:100620009093100280930F0231C0603471057CF406
:10063000681779072CF41092100210920F0226C04E
:1006400083E090E09093100280930F021FC01092FD
:10065000100210920F021AC06F3B71053CF082E04D
:1006600090E09093100280930F0210C060347105E7
:100670003CF483E090E09093100280930F0206C058
:1006800084E090E09093100280930F0280910F021B
:1006900090911002089587E884B981E58CBD089592
:1006A0008EBD0DB407FEFDCF089581E00E9450037A
:1006B0000DB407FEFDCF8EB508952F9808952F9A9B
:1006C00008950E94700440E060EE8FE00E94AF0445
:1006D0004FEF61E08BE20E94AF044FEF60E680E6EF
:1006E0000E94AF04089580E30E945E0484FD07C069
:1006F00080E30E945E0485FB882780F9089581E0ED
:1007000008950F931F93CF938C010E947303882346
:10071000A9F080E30E945E041F928F9386E792E027
:100720009F938F9381E192E09F938F930E94BB0DE3
:100730000F900F900F900F900F900F90F801408145
:100740004695469546956FEF81E30E94AF04F80108
:1007500040814295440F407E60EE82E30E94AF04E8
:10076000F80141816FE085E30E94AF04F8018181C7
:10077000882379F0C0E0F801EC0FF11D42816FEFA2
:1007800086E38C0F0E94AF04CF5FF8018181C81708
:1007900090F381E80E94A404CF911F910F910895D6
:1007A000AF92BF92CF92DF92EF92FF920F931F937F
:1007B000CF93DF93CDB7DEB72A970FB6F894DEBF9D
:1007C0000FBECDBF5C010E9473038823A9F080E6B1
:1007D0000E945E041F928F9383E892E09F938F9311
:1007E00081E192E09F938F930E94BB0D0F900F9039
:1007F0000F900F900F900F9081E60E945E04182FCB
:1008000082E60E945E04829586958770110F110F13
:10081000110FD82ED10E85E60E945E048F70C82E6F
:1008200081F07E0183E0E80EF11C06E60C0D16E671
:10083000812F0E945E04F70181937F011F5F1013D7
:10084000F7CF40E061E08CE20E94AF04D982CA8217
:100850008AE0FE013196D50101900D928A95E1F76B
:10086000C5012A960FB6F894DEBF0FBECDBFDF914B
:10087000CF911F910F91FF90EF90DF90CF90BF909D
:10088000AF9008950E945D0380EC0E9450030E9487
:100890005F038FE39CE90197F1F700C00000089522
:1008A000CF930E945D0380EA0E9450030E9455038B
:1008B000C82F0E945F038C2FCF910895CF93C82F2C
:1008C0000E945D0383E00E9450038C2F0E9450031E
:1008D0000E945503C82F0E945F038C2FCF9108956B
:1008E0000E944B030E9442048EE00E945E04807EC0
:1008F0008038A1F01F921F9280E992E09F938F931E
:100900008FE192E09F938F930E94BB0D0F900F9009
:100910000F900F900F900F9081E0089580E0089560
:10092000CF93DF93C82FD62F0E945D0382E00E94F1
:1009300050038D2F0E9450038C2F0E9450030E9461
:100940005F03DF91CF910895CF93C82F0E945D037D
:100950008C2F0E9450030E945F03CF9108951F9334
:10096000CF93DF93182FD62FC42F0E945D0385E00D
:100970000E945003812F0E9450038D2F0E9450032C
:100980008C2F0E9450030E945F03DF91CF911F9133
:1009900008958034910589F030F481309105A9F0F3
:1009A000089749F010C0811521E0920741F08115A8
:1009B000944039F008C082E0089583E0089584E00F
:1009C000089585E0089580E0089581E00895CF922C
:1009D000DF92EF92FF920F931F93CF93DF938C01DF
:1009E0006B01C0E8D0E08881826088830F2EF1E837
:1009F000EF2EF12CF02DF701808188618083C801F2
:100A00000E94C904F7019081892B808388818068C6
:100A10008883259A960140E050E060E074E284EF1C
:100A200090E00E946E0BCA01B901980140E050E0CD
:100A30000E946E0B2150310930938700209386006D
:100A40001092890010928800DF91CF911F910F9131
:100A5000FF90EF90DF90CF900895CF92DF92EF92CA
:100A6000FF920F931F93CF93DF938C016B01C0E92B
:100A7000D0E08881826088830F2EF1E9EF2EF12C7F
:100A8000F02DF701808188618083C8010E94C9042C
:100A9000F7019081892B80838881806888836B9A95
:100AA000960140E050E060E074E284EF90E00E9444
:100AB0006E0BCA01B901980140E050E00E946E0B34
:100AC000C9010197909397008093960022503109B5
:100AD0003093990020939800E1E7F0E080818260F4
:100AE0008083DF91CF911F910F91FF90EF90DF9066
:100AF000CF900895CF92DF92EF92FF920F931F93C2
:100B0000CF93DF938C016B01C0E2D1E088818260DA
:100B100088830F2EF1E2EF2EFF24F394F02DF701DE
:100B2000808188618083C8010E94C904F701908197
:100B3000892B8083888180688883960140E050E01B
:100B400060E074E284EF90E00E946E0BCA01B9018C
:100B5000980140E050E00E946E0BC901019790930C
:100B600027018093260122503109309329012093D7
:100B70002801E3E7F0E0808182608083DF91CF91FC
:100B80001F910F91FF90EF90DF90CF90089522E09A
:100B9000893B920731F470E070938900609388007C
:100BA00008958D5B924029F470E0709399006093F2
:100BB00098000895682F70E080E090E00E94770C24
:100BC00023E333E343E35EE30E94030D20E030E0E0
:100BD00040E652E40E94DA0B0E94460C6093160332
:100BE000653620F084E68093160305C0683318F458
:100BF00088E3809316036091160389EB92E00E94CC
:100C0000C705089562E370E080E091E00E94E70488
:100C10008BE40E94DA0508958CE08093B8008FEF92
:100C20008093BB0084E08093BC0008958091BC0059
:100C300081700895ECEBF0E0808180FDFDCF809124
:100C40002D020895CF93DF93EC01ECEBF0E090815F
:100C500090FDFDCF60931903988190931A0390FD46
:100C600013C0623088F0FE013196ABE1B3E0625010
:100C7000262F30E02E5F3F4FCE01820F931F219130
:100C80002D93E817F907D9F71092170388EF80938F
:100C90002D0285EA8093BC00DF91CF910895ECEBA3
:100CA000F0E0808180FDFDCF1092170388EF8093E4
:100CB0002D0285EA8093BC000895ECEBF0E02081E2
:100CC00020FDFDCF2091170320FF0DC0662359F0B2
:100CD0002AE133E0A82FB92FF90181918D938E2F4E
:100CE000821B8617D0F380911703817008951F929D
:100CF0000F920FB60F9211240BB60F922F933F93C2
:100D00008F939F93AF93BF93EF93FF93E091B900BD
:100D10008E2F90E0FC013897E135F10508F058C0BE
:100D20008827EE58FF4F8F4F0C948D0B10921803AD
:100D3000E091180380911903E81770F481E08E0F99
:100D400080931803F0E0E65EFC4F80818093BB0047
:100D500085E88093BC0043C0809117038160809335
:100D6000170384E98093BC003AC0E091180381E046
:100D70008E0F809318038091BB00F0E0E65EFC4F7D
:100D800080832091180330E08091190390E001974F
:100D90002817390724F485EC8093BC0020C085E82F
:100DA0008093BC001CC08091BB00E0911803F0E070
:100DB000E65EFC4F80838091170381608093170368
:100DC00084E98093BC000BC085EA8093BC0007C017
:100DD0008091B90080932D0284E08093BC00FF9144
:100DE000EF91BF91AF919F918F913F912F910F9074
:100DF0000BBE0F900FBE0F901F901895E2E0F1E030
:100E000080818F7B80832FEF89EF90E0215080409D
:100E10009040E1F700C000008081806480830895E5
:100E2000E2E0F1E080818F7D80838081877F808315
:100E30002FEF39EF80E0215030408040E1F700C0D3
:100E40000000A6E0B1E08C919081986090839FEFC4
:100E500029EF30E0915020403040E1F700C0000021
:100E60002C9190819062908390E0982F8827820F38
:100E7000911D089580911E0390911F030895813064
:100E8000910541F0029759F4E2E0F1E080818D7F15
:100E900080830895E2E0F1E080818260808308959C
:100EA000E9E4F3E090E590831182828363E0CF016F
:100EB0000E9422060895CF93DF93EC0118161906BD
:100EC0003CF481E090E0909321038093200310C0D4
:100ED000992354F482E090E09093210380932003BF
:100EE000D195C195D10904C010922103109220031D
:100EF00080912003909121030E943F078FE99FE09A
:100F00000197F1F700C000008C2F0E945007DF917D
:100F1000CF910895E1E0F1E0808180618083A2E0DB
:100F2000B1E08C9180618C9380818260808380812C
:100F300080628083808188608083808180648083F8
:100F400080E090E00E945B070E94FE0608958CE915
:100F50009FEF0E945B072FEF8DE399E421508040C3
:100F60009040E1F700C000000E94FE0680E090E0A3
:100F70000E945B0784E690E00E945B072FEF8DE301
:100F800099E4215080409040E1F700C000000E94A9
:100F9000100791958195910990931F0380931E03EB
:100FA0000895CF93DF93EC0180E091E00E942D053E
:100FB0001A821B821C821D821982188280E690E0B0
:100FC0009F838E838CE090E09987888782E090E011
:100FD0009B878A8781E591E09D878C8784EC9EE4DE
:100FE000ACEEB4E08E879F87A88BB98BDF91CF9151
:100FF00008950F931F93CF93DF93FC01EA01809133
:101000003403813009F041C110923403062F10E0FF
:10101000CA0164E270E00E945A0B061B170B109382
:10102000330300933203C8010996439720F41282D8
:1010300013821482158284859585801791073CF46C
:101040008FEF9FE7909331038093300321C09195F8
:1010500081959109081719073CF481E090E8909375
:1010600031038093300314C083E090E0B8010E9404
:101070005A0B86819781680F791F069FC001079FD1
:10108000900D169F900D112490933103809330039F
:10109000012E000C220B330B82819381A481B58138
:1010A000A9019801280F391F4A1F5B1F20932203B3
:1010B000309323034093240350932503868597851B
:1010C000A089B18982179307A407B5078CF44FEF65
:1010D0005FEF6FEF7FE340932A0350932B036093FE
:1010E0002C0370932D0382839383A483B5832DC037
:1010F000B095A095909581959F4FAF4FBF4F281702
:1011000039074A075B078CF441E050E060E070EC7F
:1011100040932A0350932B0360932C0370932D0369
:1011200082839383A483B58310C022833383448353
:101130005583A085B1850E94950B60932A03709317
:101140002B0380932C0390932D03808191818C1B22
:101150009D0B42855385489F9001499F300D589FB4
:10116000300D112430932F0320932E03D183C0839D
:101170004091300350913103052E000C660B770B24
:1011800080912A0390912B03A0912C03B0912D0301
:10119000480F591F6A1F7B1F80912E0390912F03C8
:1011A000092E000CAA0BBB0B480F591F6A1F7B1F8F
:1011B000DB01CA01772324F481589F4FAF4FBF4F03
:1011C000689416F8B595A795979587951694D1F7D5
:1011D00089379105A105B1056CF088E790E0A0E0A2
:1011E000B0E08093260390932703A0932803B09345
:1011F00029034BC088382FEF9207A207B2076CF47F
:1012000088E89FEFAFEFBFEF80932603909327030B
:10121000A0932803B093290338C0AC01BD01455108
:10122000510961097109423251056105710568F47E
:1012300087E390E0A0E0B0E080932603909327033B
:10124000A0932803B093290320C0AC01BD014A5CE0
:101250005F4F6F4F7F4F423251056105710548F076
:101260008093260390932703A0932803B093290328
:101270000CC089EC9FEFAFEFBFEF809326039093F4
:101280002703A0932803B09329038091260390910C
:101290002703DF91CF911F910F9108951F920F9215
:1012A0000FB60F9211248F9381E0809334038F91B6
:1012B0000F900FBE0F901F901895269A2E980895A4
:1012C0002E9A08952E9808950E9460098FE39CE954
:1012D0000197F1F700C000000E9462098FE39CE9CA
:1012E0000197F1F700C0000008951F93CF93DF939B
:1012F0002FEF81EE94E0215080409040E1F700C054
:10130000000080912E02882311F110E0C12FD0E05F
:101310000E949B01FE01E45BFC4F80832FEF81EE76
:1013200094E0215080409040E1F700C0000020810F
:101330008091350390913603820F911D909336036F
:10134000809335031F5F80912E021817F8F2809169
:101350004F03809337031F928F9381EC92E09F930A
:101360008F938FE292E09F938F930E94BB0D0F901B
:101370000F900F900F900F900F90DF91CF911F91D2
:101380000895CF93DF93C0913803D0E0C45BDC4F66
:1013900028818091350390913603821B91099093A7
:1013A0003603809335030E949B0188839091380314
:1013B000E92FF0E0E45BFC4F808120913503309110
:1013C0003603280F311D30933603209335039F5F7A
:1013D0009093380360912E02961710F01092380304
:1013E00070E0C9010E94460B862FDF91CF910895CE
:1013F000CF93DF930E94C109C82FD0E01F928F9333
:1014000080ED92E09F938F938FE292E09F938F9372
:101410000E94BB0D2091370330E02253310981E057
:101420000F900F900F900F900F900F90C217D3074F
:101430000CF080E0DF91CF9108951F920F920FB6CC
:101440000F9211248F9380913C038F5F80933C0314
:101450008F910F900FBE0F901F90189510923C0324
:1014600064E170E08EE593E00E94D1070E94A70737
:1014700061E070E080E091E00E947A0508950E94AA
:10148000F809882399F01F921F928EED92E09F93A6
:101490008F9389E492E09F938F930E94BB0D0F90EE
:1014A0000F900F900F900F900F9081E008957F9212
:1014B0008F929F92AF92BF92CF92DF92EF92FF9264
:1014C0000F931F93CF93DF93CDB7DEB72A970FB655
:1014D000F894DEBF0FBECDBF0E942E0A2FEF37EA71
:1014E00081E6215030408040E1F700C0000081E0FB
:1014F00090E090934802809347020F2EFAE07F2EEF
:10150000F02D0F2EF9EEEF2EF2E0FF2EF02D09E474
:1015100012E00F2EF0E78F2EF3E09F2EF02D0F2E0E
:10152000F0E5AF2EF3E0BF2EF02D0F2EFCE5CF2E11
:10153000F3E0DF2EF02DCE0101960E94D003FE01D4
:101540003196A2E5B3E0872D01900D928A95E1F7DF
:1015500080913C031F928F93FF92EF921F930F9302
:101560000E94BB0D0F900F900F900F900F900F9057
:10157000809152038430A1F4E2E5F3E08281D4014A
:101580008C93838111968C938481D5018C93858172
:1015900011968C938681D6018C93878111968C93BA
:1015A0000E94100744275527481B590B50933B03B3
:1015B00040933A03F5016181609339038EE593E02E
:1015C0000E94F9070E945B07D4018C910E94DA0502
:1015D000F6018181882319F00E94600902C00E94EF
:1015E00062090E943F0A811104C080915203823037
:1015F00091F51F921F9286EF92E09F938F9309E4DB
:1016000012E01F930F930E94BB0D80913C038093C7
:101610003F021F928F9383E093E09F938F931F93DA
:101620000F930E94BB0DFAEA26EE36E981E0F150F5
:10163000204030408040D9F700008DE392E00E94C6
:10164000810310924802109247020FB6F894DEBF51
:101650000FBECDBF07C08091470290914802892BF1
:1016600009F069CF2A960FB6F894DEBF0FBECDBF42
:10167000DF91CF911F910F91FF90EF90DF90CF906E
:10168000BF90AF909F908F907F900895AA1BBB1B37
:1016900051E107C0AA1FBB1FA617B70710F0A61B72
:1016A000B70B881F991F5A95A9F780959095BC0193
:1016B000CD01089597FB072E16F4009407D077FD0F
:1016C00009D00E94460B07FC05D03EF49095819509
:1016D0009F4F0895709561957F4F0895052E97FB54
:1016E0001EF400940E94850B57FD07D00E949D0BAD
:1016F00007FC03D04EF40C94850B50954095309523
:1017000021953F4F4F4F5F4F08959095809570956D
:1017100061957F4F8F4F9F4F0895EE0FFF1F881FDA
:101720008BBF0790F691E02D1994B7FF0C94BF0B77
:101730000E94BF0B821B930B0895A1E21A2EAA1BD5
:10174000BB1BFD010DC0AA1FBB1FEE1FFF1FA21771
:10175000B307E407F50720F0A21BB30BE40BF50B6E
:10176000661F771F881F991F1A9469F760957095F7
:10177000809590959B01AC01BD01CF0108950E9419
:10178000CA0BA59F900DB49F900DA49F800D911D35
:1017900011240895A29FB001B39FC001A39F700DB3
:1017A000811D1124911DB29F700D811D1124911D69
:1017B00008955058BB27AA270E94F10B0C94C90C1E
:1017C0000E94BB0C38F00E94C20C20F039F49F3FFD
:1017D00019F426F40C94B80C0EF4E095E7FB0C9485
:1017E000B20CE92F0E94DA0C58F3BA17620773079C
:1017F0008407950720F079F4A6F50C94FC0C0EF400
:10180000E0950B2EBA2FA02D0B01B90190010C0110
:10181000CA01A0011124FF27591B99F0593F50F428
:10182000503E68F11A16F040A22F232F342F442780
:10183000585FF3CF469537952795A795F040539578
:10184000C9F77EF41F16BA0B620B730B840BBAF048
:101850009150A1F0FF0FBB1F661F771F881FC2F7B3
:101860000EC0BA0F621F731F841F48F487957795C7
:101870006795B795F7959E3F08F0B0CF9395880F81
:1018800008F09927EE0F9795879508950E94E20C2E
:1018900088F09F5798F0B92F9927B751B0F0E1F031
:1018A000660F771F881F991F1AF0BA95C9F714C0E1
:1018B000B13091F00E94FC0CB1E008950C94FC0C46
:1018C000672F782F8827B85F39F0B93FCCF386951A
:1018D00077956795B395D9F73EF490958095709577
:1018E00061957F4F8F4F9F4F0895E89409C097FBF4
:1018F0003EF490958095709561957F4F8F4F9F4FE7
:101900009923A9F0F92F96E9BB279395F69587952A
:1019100077956795B795F111F8CFFAF4BB0F11F4ED
:1019200060FF1BC06F5F7F4F8F4F9F4F16C0882394
:1019300011F096E911C0772321F09EE8872F762FCA
:1019400005C0662371F096E8862F70E060E02AF00B
:101950009A95660F771F881FDAF7880F96958795F7
:1019600097F9089597F99F6780E870E060E008951F
:101970009FEF80EC089500240A94161617061806A7
:101980000906089500240A94121613061406050683
:101990000895092E0394000C11F4882352F0BB0F14
:1019A00040F4BF2B11F460FF04C06F5F7F4F8F4F77
:1019B0009F4F089557FD9058440F551F59F05F3FB2
:1019C00071F04795880F97FB991F61F09F3F79F061
:1019D00087950895121613061406551FF2CF4695E3
:1019E000F1DF08C0161617061806991FF1CF869565
:1019F0007105610508940895E894BB276627772749
:101A0000CB0197F908950E94160D0C94C90C0E9401
:101A1000BB0C38F00E94C20C20F0952311F00C94FE
:101A2000B20C0C94B80C11240C94FD0C0E94DA0C2E
:101A300070F3959FC1F3950F50E0551F629FF00121
:101A4000729FBB27F00DB11D639FAA27F00DB11D3A
:101A5000AA1F649F6627B00DA11D661F829F2227C3
:101A6000B00DA11D621F739FB00DA11D621F839F4A
:101A7000A00D611D221F749F3327A00D611D231F20
:101A8000849F600D211D822F762F6A2F11249F576E
:101A900050409AF0F1F088234AF0EE0FFF1FBB1F71
:101AA000661F771F881F91505040A9F79E3F510530
:101AB00080F00C94B20C0C94FD0C5F3FE4F3983E64
:101AC000D4F3869577956795B795F795E7959F5FDA
:101AD000C1F7FE2B880F911D9695879597F908956C
:101AE0000F931F93CF93DF93009731F46115710526
:101AF00019F480E090E03AC08B01EC016EE070E0F8
:101B000081E090E00E94C60FFC01892B91F380E8F0
:101B100083830115110571F01387028781E88383A0
:101B20008091740390917503892B21F4F0937503D0
:101B3000E09374032097C9F0D187C08783818260C6
:101B400083838091760390917703892B71F4F093CE
:101B50007703E09376038091780390917903892B42
:101B600021F4F0937903E0937803CF01DF91CF91D3
:101B70001F910F910895CF93DF93CDB7DEB7AE01DC
:101B8000465F5F4F688579858E819F810E94CB0D6E
:101B9000DF91CF9108952F923F924F925F926F9273
:101BA0007F928F929F92AF92BF92CF92DF92EF92ED
:101BB000FF920F931F93CF93DF93CDB7DEB72C9790
:101BC0000FB6F894DEBF0FBECDBF7C016B018A015A
:101BD000FC0117821682838181FFBDC1CE0101966F
:101BE0004C01F7019381F60193FD859193FF81915B
:101BF0006F01882309F4ABC1853239F493FD8591D7
:101C000093FF81916F01853229F4B70190E00E9422
:101C10002C11E7CF512C312C20E02032A0F48B3254
:101C200069F030F4803259F0833269F420612CC0BD
:101C30008D3239F0803339F4216026C0226024606F
:101C400023C0286021C027FD27C030ED380F3A306F
:101C500078F426FF06C0FAE05F9E300D1124532E63
:101C600013C08AE0389E300D1124332E20620CC040
:101C70008E3221F426FD6BC1206406C08C3611F42F
:101C8000206802C0883641F4F60193FD859193FFE8
:101C900081916F018111C1CF982F9F7D9554933011
:101CA00028F40C5F1F4FFFE3F9830DC0833631F03A
:101CB000833771F0833509F05BC022C0F801808161
:101CC00089830E5F1F4F44244394512C540115C047
:101CD0003801F2E06F0E711CF801A080B18026FF80
:101CE00003C0652D70E002C06FEF7FEFC5012C8748
:101CF0000E9421112C0183012C852F77222E17C0E1
:101D00003801F2E06F0E711CF801A080B18026FF4F
:101D100003C0652D70E002C06FEF7FEFC5012C8717
:101D20000E940F112C012C852068222E830123FC98
:101D30001BC0832D90E048165906B0F4B70180E22D
:101D400090E00E942C113A94F4CFF50127FC859184
:101D500027FE81915F01B70190E00E942C113110A4
:101D60003A94F1E04F1A51084114510471F7E5C05B
:101D7000843611F0893639F5F80127FF07C06081F4
:101D80007181828193810C5F1F4F08C060817181D6
:101D9000072E000C880B990B0E5F1F4F2F76722EAB
:101DA00097FF09C090958095709561957F4F8F4FF3
:101DB0009F4F2068722E2AE030E0A4010E94641137
:101DC000A82EA81844C0853729F42F7EB22E2AE009
:101DD00030E025C0F22FF97FBF2E8F36C1F018F406
:101DE000883579F0B4C0803719F0883721F0AFC05A
:101DF0002F2F2061B22EB4FE0DC08B2D8460B82E23
:101E000009C024FF0AC09F2F9660B92E06C028E0A3
:101E100030E005C020E130E002C020E132E0F8010E
:101E2000B7FE07C060817181828193810C5F1F4F73
:101E300006C06081718180E090E00E5F1F4FA401B9
:101E40000E946411A82EA818FB2DFF777F2E76FE26
:101E50000BC0372D3E7FA51450F474FE0AC072FCEF
:101E600008C0372D3E7E05C0BA2C372D03C0BA2CD2
:101E700001C0B52C34FF0DC0FE01EA0DF11D8081BB
:101E8000803311F4397E09C032FF06C0B394B39495
:101E900004C0832F867809F0B39433FD13C030FF5C
:101EA00006C05A2CB31418F4530C5B18B32CB3149B
:101EB00068F4B70180E290E03C870E942C11B39453
:101EC0003C85F5CFB31410F43B1801C0312C34FF1E
:101ED00012C0B70180E390E03C870E942C113C8542
:101EE00032FF17C031FD03C088E790E002C088E5EB
:101EF00090E0B7010CC0832F867859F031FF02C003
:101F00008BE201C080E237FD8DE2B70190E00E94D4
:101F10002C11A51438F4B70180E390E00E942C1135
:101F20005A94F7CFAA94F401EA0DF11D8081B7010C
:101F300090E00E942C11A110F5CF332009F451CE6E
:101F4000B70180E290E00E942C113A94F6CFF7019D
:101F50008681978102C08FEF9FEF2C960FB6F89481
:101F6000DEBF0FBECDBFDF91CF911F910F91FF90CC
:101F7000EF90DF90CF90BF90AF909F908F907F9029
:101F80006F905F904F903F902F9008950F931F9305
:101F9000CF93DF93869F8001879F100D969F100D32
:101FA0001124C8010E94E20FEC01009729F0A8015A
:101FB00060E070E00E941A11CE01DF91CF911F9175
:101FC0000F910895CF93DF938230910510F482E052
:101FD00090E0E0917C03F0917D0320E030E0C0E0F0
:101FE000D0E0309711F14081518148175907C0F076
:101FF0004817590761F482819381209719F09B83D8
:102000008A832BC090937D0380937C0326C0211587
:10201000310519F04217530718F49A01BE01DF0188
:10202000EF010280F381E02DDCCF2115310509F1AC
:10203000281B390B2430310590F412968D919C9118
:1020400013976115710521F0FB019383828304C00E
:1020500090937D0380937C03FD01329644C0FD0183
:10206000E20FF31F81939193225031092D933C93FA
:102070003AC020917A0330917B03232B41F42091C5
:10208000590230915A0230937B0320937A032091B6
:102090005702309158022115310541F42DB73EB752
:1020A00040915B0250915C02241B350BE0917A0356
:1020B000F0917B03E217F307A0F42E1B3F0B2817C8
:1020C000390778F0AC014E5F5F4F2417350748F0B1
:1020D0004E0F5F1F50937B0340937A03819391933C
:1020E00002C0E0E0F0E0CF01DF91CF9108950F93BF
:1020F0001F93CF93DF93009709F48CC0FC013297B4
:102100001382128200917C0310917D030115110549
:1021100081F420813181820F931F20917A033091C5
:102120007B032817390779F5F0937B03E0937A0353
:1021300071C0D80140E050E0AE17BF0750F41296CE
:102140002D913C911397AD012115310509F1D9016C
:10215000F3CF9D01DA013383228360817181860F81
:10216000971F8217930769F4EC0128813981260FA4
:10217000371F2E5F3F4F318320838A819B8193835A
:102180008283452B29F4F0937D03E0937C0342C0C6
:102190001396FC93EE931297ED01499159919E018C
:1021A000240F351FE217F30771F480819181840FAA
:1021B000951F029611969C938E938281938113961C
:1021C0009C938E931297E0E0F0E0D80112968D91E7
:1021D0009C911397009719F0F8018C01F6CF8D911F
:1021E0009C9198012E5F3F4F820F931F20917A039D
:1021F00030917B032817390769F4309729F410923E
:102200007D0310927C0302C01382128210937B0321
:1022100000937A03DF91CF911F910F910895FC01F4
:102220000590615070400110D8F7809590958E0F01
:102230009F1F0895DC0101C06D9341505040E0F7AD
:102240000895FC016150704001900110D8F780950D
:1022500090958E0F9F1F08950F931F93CF93DF9339
:10226000FB01238121FD03C08FEF9FEF28C022FFD8
:1022700016C046815781248135814217530744F4A3
:10228000A081B1819D012F5F3F4F318320838C93CB
:10229000268137812F5F3F4F3783268310C0EB01A4
:1022A000092F182F0084F185E02D1995892BE1F66F
:1022B0008E819F8101969F838E83812F902FDF9146
:1022C000CF911F910F910895FA01AA27283051F15B
:1022D000203181F1E8946F936E7F6E5F7F4F8F4F57
:1022E0009F4FAF4FB1E03ED0B4E03CD0670F781FB6
:1022F000891F9A1FA11D680F791F8A1F911DA11D9B
:102300006A0F711D811D911DA11D20D009F46894D3
:102310003F912AE0269F11243019305D3193DEF67B
:10232000CF010895462F4770405D4193B3E00FD031
:10233000C9F7F6CF462F4F70405D4A3318F0495D1C
:1023400031FD4052419302D0A9F7EACFB4E0A695FF
:102350009795879577956795BA95C9F70097610521
:10236000710508959B01AC010A2E06945795479577
:1023700037952795BA95C9F7620F731F841F951F6C
:08238000A01D0895F894FFCFA1
:1023880000000002000000006A01000000000404D0
:102398000000000002000000006A010000000000C8
:1023A800000002000000006A0100000000F80400BC
:1023B800000002000000006A0100000000010100A6
:1023C8000000000000000001000000000200000002
:1023D800006A010000000000007E032000494E4909
:1023E800545F4E320A0D0049523A202564200D0AE6
:1023F8000025640D0A0057525F4552202534782085
:102408000D0A0052455F455220253478200D0A00F8
:102418004D435032353135204E4F5420696E20637C
:102428006F6E666967206D6F64652061667465729A
:102438002072657365740D0A0050423500504533AB
:1024480000495220696E69743A202564200D0A00FB
:102458004952206176673A202564200D0A004952C6
:102468002074726967200D0A0073636F72653A20E1
:102478002564200D0A0047414D45204F56455220FE
:0E2488000D0A0053434F52453A2025640A00C6
:00000001FF
